:020000040800F2
:10000000000002209D0A0008950A0008950A0008D1
:10001000950A0008950A0008950A000800000000EB
:10002000000000000000000000000000950A000829
:10003000950A000800000000950A0008950A0008CB
:10004000950A0008950A0008950A0008950A000814
:10005000950A0008950A0008950A0008950A000804
:10006000950A0008690A0008950A0008950A000820
:10007000950A0008950A0008950A0008950A0008E4
:10008000950A0008950A0008950A0008950A0008D4
:10009000950A0008950A0008950A0008950A0008C4
:1000A000950A0008950A0008950A0008950A0008B4
:1000B000950A0008950A0008950A0008950A0008A4
:1000C000950A0008950A0008950A0008950A000894
:1000D000950A0008950A0008950A0008950A000884
:1000E000950A0008950A0008950A0008950A000874
:1000F000950A0008950A0008950A0008950A000864
:10010000950A0008950A0008950A0008950A000853
:10011000950A0008950A0008950A0008950A000843
:10012000950A0008950A0008950A0008950A000833
:10013000950A0008950A0008950A0008950A000823
:10014000950A0008950A0008950A0008950A000813
:10015000950A0008950A0008950A0008950A000803
:10016000950A0008950A0008950A0008950A0008F3
:10017000950A0008950A0008950A0008950A0008E3
:08018000950A0008950A000829
:1001900010B5054C237833B9044B13B10448AFF3C1
:1001A00000800123237010BD8800002000000000A3
:1001B000F429000808B5034B1BB103490348AFF30A
:1001C000008008BD000000008C000020F429000819
:1001D000034613F8012B002AFBD1181A0138704787
:1001E00001F0FF01102A2BDB10F0070F08D010F8E8
:1001F000013B013A8B422DD010F0070F42B3F6D1EC
:10020000F0B441EA012141EA014122F007047FF004
:1002100000070023F0E80256083C85EA010586EA5B
:10022000010685FA47F5A3FA87F586FA47F6A5FA97
:1002300087F68EB9EED1F0BC01F0FF0102F00702A3
:1002400032B110F8013B013A83EA010313B1F8D14E
:100250000020704701387047002D06BF354603382F
:10026000073815F0010F07D1013015F4807F02BF68
:10027000013015F4C03F0130F0BC0138704700BFB9
:1002800070B50D4D0D4C641BA4100026A64209D17B
:100290000B4D0C4C02F02CFB641BA4100026A64254
:1002A00005D170BD55F8043B98470136EEE755F887
:1002B000043B98470136F2E7F4290008F4290008C6
:1002C000F4290008F829000802440346934200D1AB
:1002D000704703F8011BF9E70A4B10B5044618688C
:1002E00018B183690BB901F05FFB132C07D80648DE
:1002F00050F83420013202D000EBC40010BD0020C1
:10030000FCE700BF00000020B4000020F8B5044660
:1003100001F0ECFA13260546002730463946ABBEFD
:1003200006462E602046F8BD431C01D1FFF7EEBF04
:10033000704730B585B0CDE901010392062401ADC7
:1003400020462946ABBE04462046FFF7EDFF05B028
:1003500030BD70B50E461546FFF7BEFF044630B9F6
:1003600001F0C4FA092303604FF0FF3070BD00684C
:100370002A463146FFF7DDFF431C1FBF6368281A7A
:100380001B186360F2E7F7B50C461646FFF7A4FFAB
:10039000054640B901F0AAFA092303604FF0FF3483
:1003A000204603B0F0BD022E03D901F09FFA1623B8
:1003B000F3E7012E12D14368E418F6D42B680A261D
:1003C000CDE900346F4630463946ABBE064630466E
:1003D000FFF7AAFF0028E1DB6C60E1E7022EEDD118
:1003E000036800930C266F4630463946ABBE06467E
:1003F0003046FFF799FF431CD0D00444DEE7FFF7F7
:10040000C2BF30B585B0CDE901010392052401AD2D
:1004100020462946ABBE04462046FFF785FF05B0BF
:1004200030BD70B50E461546FFF756FF044630B98D
:1004300001F05CFA092303604FF0FF3070BD0068E3
:100440002A463146FFF7DDFF031EF5DB6268E81A36
:100450000244AB426260F1D1BDE870400020FFF77A
:1004600055BF37B50224019001AD20462946ABBEE9
:1004700004462046FFF758FF03B030BD38B50546A7
:10048000FFF72AFF044630B901F030FA0923036070
:100490004FF0FF3038BD013D012D09D8094B9A6856
:1004A0001B699A4204D14FF0FF3303600020F1E74B
:1004B0002068FFF7D6FF0028ECD14FF0FF33236010
:1004C000E8E700BFB40000200D4A116810B50346EC
:1004D00009B90C4911601068694603448B4206D87B
:1004E00009490A4C0968A14208D08B4206D901F09B
:1004F000FDF90C2303604FF0FF3010BD1360FCE7E3
:10050000A40000209801002064000020ADDEFECA97
:1005100070B50C46FFF7E0FE054630B901F0E6F98C
:10052000092303604FF0FF3070BD636843F400534C
:1005300063604FF48063A3640C2630462946ABBE4B
:1005400005462846FFF7F0FE431C1CBF2061002033
:10055000EAE70B4610B50021044658221846FFF77B
:10056000B3FE01462046BDE81040FFF7D1BF38B5C5
:100570000D460446582200212846FFF7A5FE2046D6
:10058000002100F011F8431C04460BD06B6843F4C3
:1005900001436B602946FFF7BBFF05462046FFF786
:1005A0006DFF2C46204638BD2DE9F043DFF8A880CA
:1005B00097B007460E46002558F83540611C37D0E5
:1005C0000135142DF8D101F091F9182303604FF093
:1005D000FF343DE0C6F3004440F20163B20748BF78
:1005E00044F002041E4218BF44F00404330748BF1D
:1005F00024F00404384648BF44F008040097FFF78D
:10060000E7FDCDE90140012420464946ABBE044642
:10061000002C08DB48F8354008EBC5080023C8F873
:1006200004302C4614E02046FFF770FE04460FE02D
:1006300006F42063B3F5206FE946CBD1494638462E
:10064000FFF795FF0130C5D001F050F91123036089
:10065000204617B0BDE8F083B40000202DE9F74331
:1006600006460F462A4800211546FFF79DFF2A46F9
:10067000044600213046FFF727FE631C16D02046B3
:10068000FFF72AFE4FF00C08814640464946ABBEB4
:1006900080464046FFF748FE032802DDC31EAB42FA
:1006A00008DC2046FFF7EAFE4FF0FF34204603B097
:1006B000BDE8F08304220DEB02012046FFF749FE5E
:1006C0000328EEDD9DF80430532BEAD19DF8053068
:1006D000482BE6D19DF80630462BE2D19DF8073035
:1006E000422BDED1012239462046FFF74CFE00287E
:1006F000D7DB2A4631462046FFF72BFE054620462B
:10070000FFF7BCFE2846FFF70FFE0446CEE700BF0A
:100710004429000837B50A4D0A4C0021012201A8DE
:1007200029602260FFF79AFF002807DD9DF804305A
:1007300003F0010203F002032A60236003B030BD1E
:10074000680000206C00002010B5044C2368002BCA
:1007500001DAFFF7DFFF206810BD00BF6C0000204A
:100760002DE9F04F85B0DFF8A490CDF80490032375
:100770000024039301AF0294012528463946ABBEFD
:100780000546DFF88C802346224CC8F800504FF015
:10079000FF3244F833200133142BFAD1FFF7D4FF92
:1007A0001D4DD0B14FF0030A0423CDF8049001266B
:1007B000CDF80CA0029330463946ABBE8346174BAA
:1007C000CDF80490C3F800B00823CDF80CA0029334
:1007D00030463946ABBE06462E602B68013302BF59
:1007E0000E4B1B682B600026D8F800302360666033
:1007F000FFF7AAFF30B1094B1B68C4E902362B682A
:10080000C4E9043605B0BDE8F08F00BF5A290008DE
:10081000AC000020B4000020A8000020B0000020A0
:1008200070B5FFF759FD0925044620B901F05EF8BF
:100830000560204670BD28462146ABBE0446012C0B
:10084000F7D001F053F80024054613263046214620
:10085000ABBE06462E60ECE780B483B000AF786094
:1008600000BF7B685A1E7A60002BFAD100BF00BF20
:100870000C37BD4680BC704780B584B000AF0E4BCE
:100880007B6002237B720223BB720023FB72012375
:100890003B7304237B730A233B723B1D184600F015
:1008A000C3F90B233B723B1D184600F0BDF900BF96
:1008B0001037BD4680BD00BF0004024080B500AFC8
:1008C0001C4B1D4A1A601B4B0C221A71194B01223A
:1008D0005A71184B02229A71164B0022DA71154B8D
:1008E00000221A72154B164A1A60144B03221A7111
:1008F000124B04225A71114B02229A710F4B0122A2
:10090000DA710C4800F090F90C4800F08DF90121E3
:10091000092000F05FFB0F21092000F0DFFB054BF1
:100920001B68044A11790022184600F02FFB00BF13
:1009300080BD00BF70010020000C02407C0100203F
:100940000010024080B500AF094B0A4A1A60084BFC
:10095000094A5A60064B01221A73054B10221A618C
:10096000034B00225A61024800F0ACFD00BF80BD7D
:100970005401002000580040A086010080B59AB0C4
:1009800000AFFFF7EDFEFFF799FFFFF775FFFFF7E9
:10099000D9FF01212E4800F079FD2E4B1B68012163
:1009A000184600F022FD00BF2B4B1B78DBB2002B5A
:1009B000FAD04CF25030FFF74FFF284801F0AEF963
:1009C000512387F8673007F1670108230122214886
:1009D00000F04FFE43F69820FFF73EFF07F1660157
:1009E000082301221B4800F0A3FE97F86630632B12
:1009F00002D9632387F86630522387F8673007F1FE
:100A0000670108230122134800F033FE43F69820C3
:100A1000FFF722FF97F866301A46394608230D483B
:100A200000F086FE97F8663068333B44002203F8F6
:100A3000682C094B00221A7097F86630194608484E
:100A400001F0E6F83B461946064801F0E1F8AAE74E
:100A500000580040540100208801002008290008A7
:100A6000202900083429000880B500AF032000F0D9
:100A700063FB064B1B68054A11790122184600F0FA
:100A800085FA034B01221A7000BF80BD700100205F
:100A90008801002080B400AFFEE7000080B586B07A
:100AA00000AF1A4A1A4BD31A7B60194B7B61194B62
:100AB0003B610023FB600AE03A69531C3B617B69A0
:100AC000591C796112781A70FB680133FB60FA686F
:100AD0007B689A42F0D3104A104BD31A7B600F4BBD
:100AE0007B610023BB6007E07B695A1C7A610022AE
:100AF0001A70BB680133BB60BA687B689A42F3D353
:100B0000FFF7BEFBFFF73AFFFEE700BF88000020BB
:100B100000000020FC290008980100208800002027
:100B200080B483B000AF78600B46FB70FB78012B7C
:100B300061D17B68324A934206D1324B1B6B314AFA
:100B400043F00103136356E07B682F4A934206D1BA
:100B50002C4B1B6B2B4A43F0020313634BE07B6867
:100B60002A4A934206D1274B1B6B264A43F00403C3
:100B7000136340E07B68264A934206D1214B1B6BEE
:100B8000204A43F00803136335E07B68214A93420F
:100B900006D11C4B1B6B1B4A43F0100313632AE066
:100BA0007B681D4A934206D1164B1B6B154A43F0D6
:100BB000200313631FE07B68184A934206D1114B50
:100BC0001B6B104A43F04003136314E07B68144A24
:100BD000934206D10B4B1B6B0A4A43F0800313630D
:100BE00009E07B680F4A934205D1064B1B6B054A0F
:100BF00043F48073136300BF0C37BD4680BC70475D
:100C00000000024000380240000402400008024098
:100C1000000C024000100240001402400018024084
:100C2000001C02400020024080B586B000AF786012
:100C30007B681B6801211846FFF772FF7B685B79B0
:100C4000032B20D87B685B791A467B681B795B0095
:100C500002FA03F33B617B681B681A687B681B79A7
:100C60005B00032101FA03F3DB4319467B681B6831
:100C70000A401A607B681B6819687B681B683A69C0
:100C80000A431A60DBE07B685B79042B17D1524B77
:100C9000DB687A681279114601228A4011464E4A71
:100CA0000B43D3604C4B9B687A6812791146012242
:100CB0008A40D2431146484A0B40936035E07B6836
:100CC0005B79052B17D1444B9B687A6812791146E2
:100CD00001228A401146404A0B4393603E4BDB6839
:100CE0007A681279114601228A40D24311463A4A63
:100CF0000B40D36019E07B685B79062B15D1364B2E
:100D00009B687A681279114601228A401146324A5C
:100D10000B439360304BDB687A68127911460122ED
:100D20008A4011462C4A0B43D3607B681B799B0891
:100D3000FB757B681B7903F00303BB757B681B683D
:100D4000264A93425ED07B681B68254A934240D076
:100D50007B681B68234A934239D07B681B68224A10
:100D6000934232D07B681B68204A93422BD07B6829
:100D70001B681F4A934224D07B681B681D4A93421C
:100D80001DD07B681B681C4A934216D07B681B6889
:100D90001A4A93420FD07B681B68194A934208D0C5
:100DA0007B681B68144A934201D10A232BE000237D
:100DB00029E0092327E0082325E0072323E0062371
:100DC00021E005231FE004231DE003231BE0022391
:100DD00019E0012317E000BF003C01400000024081
:100DE0000004024000080240000C024000100240D3
:100DF0000014024000180240001C02400020024083
:100E00000024024000237B755D4B5B6C5C4A43F41D
:100E1000804353647A7DBB7D9B0002FA03F1594AFB
:100E2000FB7D023342F82310574B1B687A68127916
:100E3000114601228A401146534A0B431360002396
:100E40003B617B689B791A467B681B795B0002FAE1
:100E500003F33B617B681B689A687B681B795B00C6
:100E6000032101FA03F3DB4319467B681B680A4040
:100E70009A607B681B6899687B681B683A690A43BB
:100E80009A6000233B617B68DB791A467B681B799B
:100E90005B0002FA03F33B617B681B68DA687B68DE
:100EA0001B795B00032101FA03F3DB4319467B68DE
:100EB0001B680A40DA607B681B68D9687B681B681E
:100EC0003A690A43DA6000233B617B681B7A1A4661
:100ED0007B681B7902FA03F33B617B681B685A68E5
:100EE0007B681B79194603238B40DB4319467B68DB
:100EF0001B680A405A607B681B6859687B681B68DE
:100F00003A690A435A6000233B617B685B79022B94
:100F100032D17B681B79DB08DBB2FB607B681B7915
:100F200003F00703BB607B681B68FA68083253F85C
:100F30002220BB689B000F2101FA03F3DB43194613
:100F40007B681B681140FA68083243F822107B68FE
:100F50001B68FA68083253F822207B685B7A1946CE
:100F6000BB689B0001FA03F319467B681B681143B9
:100F7000FA68083243F8221000BF1837BD4680BD1A
:100F80000038024000380140003C014080B483B08A
:100F900000AF78600B46FB701346BB70BB78012B2B
:100FA00009D17B685B69FA78012101FA02F21A43E0
:100FB0007B685A6109E07B685B69FA78012101FA74
:100FC00002F2D2431A407B685A6100BF0C37BD461B
:100FD00080BC704780B483B000AF03460A46FB7103
:100FE0001346BB71BB79012B33D1FB791F2B0AD878
:100FF000344B1B68FA79012101FA02F21146314A99
:101000000B43136059E0FB791F2B0FD9FB793F2B62
:101010000CD82D4B1B68FA7902F01F02012101FA4E
:1010200002F21146284A0B43136046E0FB793F2B3E
:1010300043D9FB795F2B40D8244B1B68FA7902F027
:101040001F02012101FA02F21146204A0B431360EC
:1010500033E0FB791F2B0AD81D4B1B68FA7901215D
:1010600001FA02F211461A4A0B43136025E0FB799C
:101070001F2B0FD9FB793F2B0CD8164B1B68FA7925
:1010800002F01F02012101FA02F21146114A0B433C
:10109000136012E0FB793F2B0FD9FB795F2B0CD843
:1010A0000D4B1B68FA7902F01F02012101FA02F2CE
:1010B0001146094A0B431360FFE700BF0C37BD46DA
:1010C00080BC704700E100E004E100E008E100E0DE
:1010D00080E100E084E100E088E100E080B485B0D8
:1010E00000AF03460A46FB711346BB71FB799B08B0
:1010F000FB73FB7903F00303BB73BB7BDB00DBB249
:1011000004337B73FB7B9B0003F1604303F5644373
:101110001A68B9797B7B01FA03F31946FB7B9B00C4
:1011200003F1604303F564430A431A6000BF1437B8
:10113000BD4680BC7047000080B483B000AF03465A
:10114000FB710C4B5B69FA79012101FA02F2134041
:10115000002B09D0074B5B69FA79012101FA02F2F1
:101160001146044A0B43536100BF0C37BD4680BC97
:10117000704700BF003C014080B485B000AF78608C
:101180007B685B69FB607B689B69FB6000BF143711
:10119000BD4680BC704780B400AF00231846BD46F2
:1011A00080BC704780B584B000AF254B9B689B081E
:1011B000DBB203F00303FB71FB79002B02D1214B5F
:1011C000BB600BE0FB79012B02D11F4BBB6005E03C
:1011D000FB79022B02D1FFF7DEFFB860184B9B684A
:1011E0001B09DBB203F00F03BB71BB79072B02D8DD
:1011F0000123FB8105E0BB79083B144A32F8133028
:10120000FB810F4B9B689B0ADBB203F00703BB71AA
:10121000BB79032B02D80123BB8105E0BB79043BDA
:101220000B4A32F81330BB81FB89BA68B2FBF3F288
:10123000BB89B2FBF3F318461037BD4680BD00BF33
:10124000003802400024F40000127A0070000020F0
:101250008000002080B483B000AF78607B681B689A
:1012600043F480727B681A6000BF0C37BD4680BCB7
:10127000704780B483B000AF78607B681B6843F42C
:1012800000727B681A6000BF0C37BD4680BC704797
:1012900080B586B000AF786039607B685B69002BF1
:1012A0000CD13B68DBB25B00FB73FB7B23F00103DB
:1012B000FB737B681B68FA7B1A6124E0F023FB75E3
:1012C0003B681B0ADBB25B00DBB203F00603DAB259
:1012D000FB7D1343FB757B681B68FA7D1A6100BFB9
:1012E0007B681B680821184600F0B0F90346002B04
:1012F000F6D03B68FB757B681B685B693B617B686C
:101300001B68FA7D1A6100BF1837BD4680BD80B5E5
:1013100086B000AF786039607B685B69002B0CD1C8
:101320003B68DBB25B00FB73FB7B43F00103FB73A9
:101330007B681B68FA7B1A6153E0F023FB753B68FE
:101340001B0ADBB25B00DBB203F00603DAB2FB7D03
:101350001343FB757B681B68FA7D1A6100BF7B68CD
:101360001B680821184600F071F90346002BF6D0DF
:101370003B68FB757B681B685B693B617B681B682E
:10138000FA7D1A6100BF7B681B680221184600F0D5
:101390005DF90346002BF6D07B681B681846FFF703
:1013A000EBFE7B681B681846FFF754FF00BF7B68A5
:1013B0001B680121184600F049F90346002BF6D0BE
:1013C000F123FB753B681B0ADBB25B00DBB203F069
:1013D0000603DAB2FB7D1343FB757B681B68FA7D5D
:1013E0001A6100BF1837BD4680BD80B483B000AF1E
:1013F00078600B46FB70FB78012B06D17B681B687D
:1014000043F480627B681A6005E07B681B6823F404
:1014100080627B681A6000BF0C37BD4680BC704795
:1014200080B483B000AF78600B46FB70FB78012B73
:101430001FD17B68114A934206D1114B1B6C104A95
:1014400043F40013136414E07B680E4A934206D100
:101450000B4B1B6C0A4A43F48003136409E07B685E
:10146000094A934205D1064B1B6C054A43F400031D
:10147000136400BF0C37BD4680BC70470054004069
:101480000038024000580040005C004080B483B047
:1014900000AF78600B46FB70FB78012B06D17B68B0
:1014A0001B6843F001027B681A6005E07B681B68DB
:1014B00023F001027B681A6000BF0C37BD4680BC78
:1014C0007047000080B584B000AF78600023FB60F7
:1014D0007B681B6801211846FFF7A2FF7B681B7B16
:1014E0009B021A46FB681343FB607B681B68FA6823
:1014F0001A600023FB60FFF755FE0346504AA2FB2B
:1015000003239B0CFB607B681B68FA685A6000230E
:10151000FB60FB6843F48043FB607B685B69002BE6
:101520000CD1FB6823F40043FB607B681B69DBB2D2
:101530005B001A46FB681343FB600EE07B685B6947
:10154000012B0AD1FB6843F40043FB607B681B69F5
:10155000C3F30903FA681343FB607B681B68FA68EE
:101560009A600023FB607B685B68364A934209D12E
:10157000FFF718FE02467B685B685B00B2FBF3F383
:101580007B8126E0FB6843F40043FB607B689B683B
:101590009B03FA681343FB607B689B68002B0BD1AD
:1015A000FFF700FE01467B685A6813465B00134450
:1015B000B1FBF3F37B810CE0FFF7F4FD01467B68A0
:1015C0005A6813469B0013449A001344B1FBF3F38B
:1015D0007B817B89C3F30B03FA681343FB607B6851
:1015E0001B68FA68DA610023FB607B685B68154A58
:1015F000934209D1FFF7D6FD0346114AA2FB03230C
:101600009B0C0133FB6010E0FFF7CCFD03460C4A56
:10161000A2FB03239B0C4FF4967202FB03F30A4ACE
:10162000A2FB03239B090133FB607B681B68FA68FC
:1016300002F03F021A6200BF1037BD4680BD00BFF6
:1016400083DE1B43A0860100D34D621080B483B0BB
:1016500000AF786039607B685A693B681340002BA3
:1016600001D0012300E0002318460C37BD4680BCA2
:10167000704780B584B000AFF860B9607A603B60B5
:10168000FB681B681846FFF7E5FD00BFFB681B6899
:1016900001211846FFF7DAFF0346002BF6D0396820
:1016A000F868FFF7F5FD00BFFB681B6802211846CC
:1016B000FFF7CCFF0346002BF6D0FB681B681846EB
:1016C000FFF75AFD14E000BFFB681B688021184635
:1016D000FFF7BCFF0346002BF6D0BB681A78FB6807
:1016E0001B681A61BB680133BB607B68013B7B6090
:1016F0007B68002BE7D100BFFB681B688021184680
:10170000FFF7A4FF0346002BF6D000BFFB681B6861
:1017100004211846FFF79AFF0346002BF6D0FB681A
:101720001B681846FFF7A5FD00BF1037BD4680BDFA
:1017300080B584B000AFF860B9607A603B60FB6848
:101740001B681846FFF786FD00BFFB681B68012178
:101750001846FFF77BFF0346002BF6D03968F86880
:10176000FFF7D5FD00BFFB681B6802211846FFF795
:101770006DFF0346002BF6D07B68012B22D1FB685E
:101780001B681A68FB681B6822F480621A60FB6899
:101790001B681846FFF7F0FC00BFFB681B68402180
:1017A0001846FFF753FF0346002BF6D0FB681B6873
:1017B0001846FFF75EFDFB681B681B69DAB2BB6861
:1017C0001A707CE07B68022B3BD1FB681B681A68AF
:1017D000FB681B6822F480621A60FB681B681A6849
:1017E000FB681B6842F400621A60FB681B681846BD
:1017F000FFF7C2FC00BFFB681B6804211846FFF717
:1018000025FF0346002BF6D0FB681B681846FFF740
:1018100030FDFB681B681B69DAB2BB681A70BB68D5
:101820000133BB60FB681B681B69DAB2BB681A70C6
:10183000FB681B681A68FB681B6822F400621A6068
:101840003DE07B68022B3AD9FB681B6801211846F2
:10185000FFF71CFEFB681B6801211846FFF7C5FD5A
:10186000FB681B681846FFF787FC25E000BFFB6894
:101870001B6840211846FFF7E9FE0346002BF6D00F
:101880007B68022B0CD1FB681B681A68FB681B681D
:1018900022F480621A60FB681B681846FFF7E9FCB7
:1018A000FB681B681B69DAB2BB681A70BB6801333E
:1018B000BB607B68013B7B607B68002BD6D1FB68FB
:1018C0001B7B012B0DD1FB681B6801211846FFF71C
:1018D000DDFDFB681B681A68FB681B6842F48062C8
:1018E0001A6000BF1037BD4680BD0000014B18686C
:1018F000704700BF00000020002310B50446C0E977
:101900000033C0E90433836081814366C28183610F
:10191000194608225C30FEF7D7FC054B6362054B85
:10192000A362054BE362054B2462236310BD00BF35
:101930004D1D00086F1D0008A71D0008CB1D0008E5
:10194000014900F0AFB800BF9D20000870B56822C3
:101950004D1E55430E4605F1740100F0E5F80446AE
:1019600040B10021C0E900160C30A06005F168020A
:10197000FEF7AAFC204670BD014800F0B3B800BFD6
:101980008A010020014800F0AEB800BF8A010020A3
:10199000014800F0A7B800BF8B010020014800F00B
:1019A000A2B800BF8B01002010B50446FFF7F0FF7E
:1019B000A3691BB1BDE81040FFF7F0BFC4E91233C3
:1019C0002365134B134A1B68A262A34204BF012381
:1019D000A361204600F020F86060204600F01CF86B
:1019E000A060204600F018F80022E0600421606842
:1019F000FFF782FFA06801220921FFF77DFFE06861
:101A000002221221FFF778FF0123A361D2E700BF72
:101A10004029000841190008F8B50746FFF7ACFF58
:101A20001E4B1E68B36913B93046FFF7BDFF483639
:101A3000D6E90134013B03D533680BB33668F7E7C9
:101A4000B4F90C50D5B9164BE36004F15800656643
:101A500000F047F8FFF796FFC4E90155C4E90455C3
:101A60002560A5610822294604F15C00FEF72CFCE4
:101A7000C4E90D55C4E912552046F8BD6834D9E7CC
:101A800004213846FFF762FF044630600028D5D1B4
:101A9000FFF778FF0C233B60EEE700BF402900080A
:101AA0000100FFFF2DE9F8430646884600F148048F
:101AB0000027D4E90195B9F1010905D52468002C66
:101AC000F7D13846BDE8F883AB89012B07D9B5F9C2
:101AD0000E30013303D029463046C04707436835EE
:101AE000E9E770477047704770B50E4E0C46316895
:101AF000054611B900F01AF930602146284600F079
:101B000015F9431C0AD0C41C24F00304A04207D0DA
:101B1000211A284600F00AF9013001D14FF0FF34B4
:101B2000204670BD900100202DE9F041CD1C25F02C
:101B3000030508350C2D38BF0C25002D074601DBA9
:101B4000A94205D90C233B6000263046BDE8F08150
:101B50002E4E00F057FB33681C4634BB29463846EE
:101B6000FFF7C2FF431C04464DD134682646002EC1
:101B700040D123683146384604EB030800F0D6F81C
:101B800080453AD1216803356D1A25F003050835E3
:101B90000C2D38BF0C2529463846FFF7A5FF01302C
:101BA0002BD023682B4423600EE02268521B1ED4E6
:101BB0000B2A16D96119A342256018BF59606368C2
:101BC00008BF316062514B60384604F10B0600F0EB
:101BD0001FFB26F00706231DF21AB6D09B1BA3504D
:101BE000B3E76268A3420CBF32605A60ECE7234659
:101BF0006468B2E734467668B9E70C233B60384640
:101C000000F006FBA1E72560DEE700BF8C010020A5
:101C10000FB40A4B13B51C6824B1A36913B920464D
:101C2000FFF7C2FE05AB049AA1680193204600F0BD
:101C300067FB02B0BDE8104004B070470000002010
:101C400070B50E46054618B183690BB9FFF7ACFEB7
:101C5000AB69AC6813B92846FFF7A6FE2C4B9C4233
:101C600020D16C68636EDB0705D4A389980502D484
:101C7000A06DFFF737FFA38919071DD52369DBB1D5
:101C8000013EA36816F8011F013BA36039BB002B7E
:101C900038DA22460A21284600F09CF8013011D09B
:101CA0000A2511E01B4B9C4201D1AC68DAE71A4BC4
:101CB0009C4208BFEC68D5E72146284600F0EEF8C4
:101CC0000028DDD04FF0FF35636EDA0705D4A38915
:101CD0009B0502D4A06DFFF706FF284670BD002BC0
:101CE00004DAA2699A4206DC0A2904D023685A1C45
:101CF00022601970C5E72246284600F06BF80130D3
:101D0000BFD1DFE723680A255A1C22601D70DBE77C
:101D100080290008A029000860290008024B01461C
:101D20001868FFF78DBF00BF0000002038B5064DD2
:101D30000023044608462B60FEF7C6FB431C02D175
:101D40002B6803B1236038BD9401002010B50C4608
:101D5000B1F90E1000F098FD0028ABBF636DA389A8
:101D60001B1823F48053ACBF6365A38110BD2DE91C
:101D7000F0411F468B89DB0505460C46164605D506
:101D8000B1F90E100223002200F0C4F9A389B4F9BE
:101D90000E1023F48053A38132463B462846BDE80B
:101DA000F04100F069B810B50C46B1F90E1000F022
:101DB000B1F9431CA38915BF606523F4805343F434
:101DC0008053A38118BFA38110BDB1F90E1000F09C
:101DD000D3B80000F8B50E461446054618B183691D
:101DE0000BB9FFF7E1FD214B9C422BD16C68A36935
:101DF000A360A3891A072FD523696BB323692068D1
:101E0000C01A6369F6B28342374604DC214628468D
:101E100000F044F930BBA368013BA36023685A1C5F
:101E200022601E7063690130834204D0A389DB07FE
:101E300006D50A2E04D12146284600F02FF988B98C
:101E40003846F8BD0A4B9C4201D1AC68CFE7094B3C
:101E50009C4208BFEC68CAE72146284600F01EF8FD
:101E60000028CBD04FF0FF37EAE700BF80290008F9
:101E7000A02900086029000838B5074D0446084627
:101E8000114600222A601A46FEF7CBFA431C02D103
:101E90002B6803B1236038BD94010020324B70B52C
:101EA0001D6806460C4625B1AB6913B92846FFF7F5
:101EB0007BFD2E4B9C420FD16C68A389B4F90C209A
:101EC00019072CD4DD0611D40923336042F04003F6
:101ED000A3814FF0FF303EE0254B9C4201D1AC681E
:101EE000EBE7244B9C4208BFEC68E6E7580712D5A5
:101EF000616B41B104F14403994202D0304600F0D5
:101F00008DF900236363A38923F02403A3810023B5
:101F1000636023692360A38943F00803A3812369D5
:101F20004BB9A38903F42073B3F5007F03D0214696
:101F3000304600F027F9A089B4F90C2010F0010315
:101F40000AD00023A36063695B42A361236943B99C
:101F500010F08000BAD170BD810758BF6369A360DB
:101F6000F4E70020F7E700BF000000208029000808
:101F7000A02900086029000838B5064D0023044652
:101F800008462B60FEF77AFA431C02D12B6803B196
:101F9000236038BD940100208A89F8B505461007F2
:101FA0000C4657D44B68002B04DC0B6C002B01DC77
:101FB0000020F8BDE66A002EFAD0002312F4805209
:101FC0002F682B6032D0606DA3895A0705D56368EE
:101FD000C01A636B0BB1236CC01A00230246E66A79
:101FE000216A2846B047431CA38906D129681D29C8
:101FF0002CD8294ACA40D60728D500226260D904C5
:102000002269226004D5421C01D12B6803B96065A6
:10201000616B2F600029CBD004F14403994202D0B8
:10202000284600F0FBF800206063C2E7216A012324
:102030002846B047411CC7D12B68002BC4D01D2BAC
:1020400001D0162B01D12F60B2E7A38943F04003E2
:10205000A381AEE70F69002FAAD093070E6808BFCF
:102060004B690F6018BF0023F61B8B60002E9FDDAD
:10207000216AD4F828C033463A462846E04700286B
:1020800006DCA38943F04003A3814FF0FF3090E7C3
:102090000744361AEAE700BF0100402038B50B6953
:1020A00005460C4613B90025284638BD18B183698A
:1020B0000BB9FFF779FC144B9C421BD16C68B4F947
:1020C0000C30002BEFD0626ED00704D4990502D4F7
:1020D000A06DFFF707FD28462146FFF75DFF636E01
:1020E000DA070546E0D4A3899B05DDD4A06DFFF790
:1020F000FAFCD9E7054B9C4201D1AC68DFE7044B01
:102100009C4208BFEC68DAE780290008A029000893
:102110006029000838B5074D0446084611460022DC
:102120002A601A46FEF76BF9431C02D12B6803B1F3
:10213000236038BD9401002070B50E46B1F90E1031
:10214000002996B014461D4608DAB6F90C30002274
:102150002A601A0610D44FF480630EE06A4600F03D
:10216000A5FB0028F1DB019A02F47042A2F50053AE
:102170005A425A412A60EEE740230020236016B0FD
:1021800070BD00008B8973B59D0706460C4607D5C8
:1021900004F14703236023610123636102B070BD32
:1021A00001AB6A46FFF7C8FF009905463046FFF7C6
:1021B000BBFC48B9B4F90C309A05EFD423F0030303
:1021C00043F00203A381E3E70D4BB362A3892060D0
:1021D00043F08003A381009B6361019B20615BB19D
:1021E000B4F90E10304600F073FB28B1A38923F038
:1021F000030343F00103A381A0890543A581CDE733
:10220000411900080148FFF76DBC00BF890100209B
:102210000148FFF768BC00BF8901002038B50546BA
:10222000002941D051F8043C0C1F002BB8BFE41822
:10223000FFF7E8FF1D4A136833B96360146028464E
:10224000BDE83840FFF7E4BFA34208D92068211851
:102250008B4201BF19685B6809182160EDE71A46D7
:102260005B680BB1A342FAD911685018A0420BD198
:1022700020680144501883421160E0D118685B68FF
:10228000536001441160DAE702D90C232B60D6E7D2
:10229000206821188B4204BF19685B68636004BF23
:1022A000091821605460CAE738BD00BF8C010020C6
:1022B0009368013B002B10B4936007DA9469A34242
:1022C00001DB0A2902D110BCFFF784BD1368581C3A
:1022D00010601970084610BC7047F8B506460F46E6
:1022E0001446D518AC4201D1002007E014F8011BB8
:1022F0003A463046FFF7DCFF431CF3D1F8BD00003F
:102300002DE9F04F0D469DB014469846064618B18B
:1023100083690BB9FFF748FB894B9D421BD1756858
:102320006B6ED90705D4AB899A0502D4A86DFFF767
:10233000D9FBAB891B0701D52B69EBB92946304680
:10234000FFF7ACFDC0B16B6EDC070ED54FF0FF3070
:102350001DB0BDE8F08F7B4B9D4201D1B568DFE732
:10236000794B9D4208BFF568DAE7AB899805EDD453
:10237000A86DFFF7B8FBE9E70023099320238DF848
:102380002930CDF80C803023DFF8C0818DF82A3059
:102390004FF0010923469A4613F8012B0AB1252A6A
:1023A000F9D1BAEB040B0BD05B46224629463046E6
:1023B000FFF793FF013000F0AA80099A5A4409926E
:1023C0009AF80030002B00F0A28000234FF0FF327B
:1023D000CDE905230AF1010A049307938DF85330E0
:1023E0001A935446052214F8011B5848FDF7F8FECD
:1023F000049AD8B9D10644BF20238DF8533013076F
:1024000044BF2B238DF853309AF800302A2B15D077
:10241000079A544600204FF00A0C214611F8013B60
:10242000303B092B4ED9B0B1079214E0A0EB080362
:1024300009FA03F313430493A246D2E7039B191D41
:102440001B680391002BBBBF5B4242F00202079363
:102450000793B8BF049223782E2B0CD163782A2BD4
:1024600035D1039B1A1D1B680392002BB8BF4FF098
:10247000FF3302340593DFF8D8A0217803225046B9
:10248000FDF7AEFE40B14023A0EB0A0003FA00F0D6
:10249000049B03430134049314F8011B2D488DF869
:1024A00028100622FDF79CFE00283FD02A4B1BBBBC
:1024B000039B073323F0070308330393099B3B4433
:1024C000099367E70CFB02320C460120A5E70023C5
:1024D0000134059319464FF00A0C204610F8012BE1
:1024E000303A092A03D9002BC5D00591C3E70CFB6C
:1024F000012104460123F0E703AB00932A46174B62
:1025000004A93046AFF300800746781CD6D16B6E25
:10251000D90705D4AB899A0502D4A86DFFF7E3FA71
:10252000AB895B063FF512AF099811E703AB009347
:102530002A460A4B04A9304600F080F8E4E700BFC1
:1025400080290008A029000860290008C029000887
:10255000C6290008CA29000800000000DB22000884
:102560002DE9F047164699468A680B69DDF8208008
:102570009342B8BF1346336091F8432007460C4698
:102580000AB1013333602368990642BF33680233CE
:102590003360256815F0060506D104F1190AE368D1
:1025A00032689B1AAB4226DC94F84320131E226843
:1025B00018BF012392062BD404F143024946384642
:1025C000C04701301ED02368E568326803F0060377
:1025D000042B08BFAD1AA36822690CBF25EAE57574
:1025E00000259342C4BF9B1AED1800261A34B54249
:1025F0001AD1002008E00123524649463846C04718
:10260000013003D14FF0FF30BDE8F0870135C6E758
:10261000E1185A1C302081F84300224494F84510F8
:1026200082F843100233C7E7012322464946384661
:10263000C0470130E6D00136D9E700002DE9FF4759
:102640000F7E0C9D782F914680460C469A4601F1EC
:10265000430207D8622F0AD8002F00F0D880582FE5
:1026600000F0A38004F1420584F842703AE0A7F13B
:102670006303152BF6D801A151F823F0D5260008E5
:10268000E92600086526000865260008652600087A
:1026900065260008E926000865260008652600086A
:1026A0006526000865260008F52700081927000898
:1026B000D7270008652600086526000817280008A7
:1026C0006526000819270008652600086526000809
:1026D000DF2700082B681A1D1B682A6004F14205D9
:1026E00084F842300123A3E020682968060601F13E
:1026F00004030AD50E682B60002E03DA2D237642E0
:1027000084F843305E480A2319E00E682B6010F00D
:10271000400F18BF36B2EFE72B682068191D2960FB
:10272000010601D51E6802E04606FBD51E88544806
:102730006F2F0CBF08230A23002184F8431065681B
:10274000A560002DA2BF216821F0040121600EB90F
:10275000002D4DD01546B6FBF3F103FB1167C75DA5
:1027600005F8017D3746BB420E46F4D9082B0BD144
:102770002368DE0708D5236961689942DEBF3023EC
:1027800005F8013C05F1FF35521B2261CDF800A090
:102790004B4603AA21464046FFF7E2FE01304CD1EA
:1027A0004FF0FF3004B0BDE8F087354881F8457040
:1027B0002968236851F8046B29601D0614D5DF07CA
:1027C00044BF43F0200323601EB9236823F0200395
:1027D00023601023B0E7236843F0200323607823AD
:1027E000284884F84530E3E7590648BFB6B2E6E723
:1027F0001546BBE72B6826686169181D28603506F9
:102800001B6801D5196002E07006FBD51980002312
:1028100023611546BAE72B681A1D2A601D68626895
:1028200000212846FDF7DCFC08B1401B60606368AE
:102830002361002384F84330A8E723692A464946E8
:102840004046D0470130ABD023689B0713D4E068E3
:10285000039B9842B8BF1846A4E701233246494675
:102860004046D04701309BD00135E36803995B1A9D
:10287000AB42F2DCEBE7002504F11906F5E700BFF7
:10288000D1290008E229000838B5074D044608465A
:10289000114600222A601A46FDF75BFD431C02D157
:1028A0002B6803B1236038BD9401002038B5074D73
:1028B00000230446084611462B60FDF74AFE431CE0
:1028C00002D12B6803B1236038BD00BF9401002002
:1028D00038B5064D0023044608462B60FDF7A0FFDF
:1028E000431C02D12B6803B1236038BD9401002042
:1028F000F8B500BFF8BC08BC9E467047F8B500BFED
:08290000F8BC08BC9E467047BC
:102908004170706C69636174696F6E2069732072BD
:10291800756E6E696E6721004C656E677468206F0E
:102928006620646174613A2025750A0042797465ED
:10293800733A2025730A0000040000203A73656D7D
:1029480069686F7374696E672D6665617475726501
:1029580073003A74740000000000000000000000DA
:10296800000000000000000000000000000000005F
:10297800000000000000000000000000000000004F
:10298800000000000000000000000000000000003F
:10299800000000000000000000000000000000002F
:1029A800000000000000000000000000000000001F
:1029B8000000000000000000232D302B2000686C70
:1029C8004C0065666745464700303132333435364A
:1029D8003738394142434445460030313233343583
:0C29E800363738396162636465660000B0
:0429F400B501000821
:0429F8009101000841
:1029FC00040000200000000080290008A029000825
:102A0C006029000800000000000000000000000029
:102A1C0000000000000000000000000000000000AA
:102A2C00000000000000000000000000000000009A
:102A3C00000000000000000000000000000000008A
:102A4C00000000000000000000000000000000007A
:102A5C0000000000ADDEFECAFFFFFFFFFFFFFFFF1F
:102A6C000200040008001000400080000001000279
:082A7C00020004000800100034
:0400000508000A9D48
:00000001FF
